:1000000012C038C12BC02AC029C028C027C026C0B2
:1000100025C0A3C323C022C021C020C01FC01EC052
:100020001DC01CC01BC011241FBECFE5D4E0DEBF25
:10003000CDBF10E0A0E6B0E0E4E0FFE002C0059034
:100040000D92AC36B107D9F710E0ACE6B0E001C0D4
:100050001D92A139B107E1F74FD252C7D1CF10920B
:100060007E0081E0809380001092820010928400D4
:1000700020918700822F6AE0D3D680937D00822F63
:10008000CFD690937F0020918800822FC9D680938D
:100090008100822FC5D69093830008958230A9F104
:1000A000833030F4882369F0813009F078C017C0BC
:1000B000843009F450C08430E0F1853009F06FC01D
:1000C0005DC020918700822F6AE0AAD680937D00D0
:1000D000822FA6D690937F00209188000DC020919A
:1000E0008B00822F6AE09CD680937D00822F98D669
:1000F00090937F0020918C00822F92D68093810074
:10010000822F8ED690938300089520918500822FB0
:100110006AE086D680937D00822F82D690937F00FE
:10012000809186007DD6809381008AE08093830051
:1001300008958091740080937D0080937F00809368
:100140008100809383008F5F809374008A3038F140
:1001500010927400089588E080937D0080937F0062
:10016000809381008093830081E080937E00809360
:100170008000809382008093840008958AE08093B9
:100180007D0080937F008093810080938300109294
:100190007E001092800010928200109284000895D8
:1001A00083E882BF83E083BF89B7816089BF0895F8
:1001B00013BE08958A98929A85B7816085BF8BB7E0
:1001C00080648BBF0895982F883710F08CED0895C8
:1001D0008C538C3310F488EC08959451983210F0BD
:1001E00080EA089584EB08950F931F93FC01DB01CF
:1001F0009A0166E370E07183608381E0828389EC19
:1002000091E0908787839287818708EC10E01483C0
:10021000038348EE53E05683458311967C936E9397
:1002200082E012968C9312978FE691E018969C9339
:100230008E9317971A969C938E93199714961C93E6
:100240000E93139716965C934E931597F90171834D
:10025000608384E082831086178289E491E092872C
:10026000818784EF91E094838383568345831F9134
:100270000F9108951F920F920FB60F9211248F9332
:1002800081E0809372008F910F900FBE0F901F90AE
:10029000189580917000882309F510926F00809165
:1002A0007C008F5F80937C00853018F081E0809324
:1002B0007C00109280008AE080937D0080937F0014
:1002C0008093810080917C008093830069E072D4E8
:1002D0008CED95E090936E0080936D000895809171
:1002E0007000882321F01092700085E0D7DE8091A5
:1002F0006F008631F8F410926F00809188008F5F54
:10030000809388008C3310F010928800109289003E
:1003100080E0C4DE20918700309188004091890000
:1003200050918A0060918B0070918C0080918D00BB
:100330000FD41FC086518930E0F486E180936F00AE
:1003400080918C008F5F80938C008D3018F081E05D
:1003500080938C00E0918C00F0E0E15AFF4F909187
:100360008B008081891718F481E080938B0081E0F5
:1003700095DE20918700309188004091890050914E
:100380008A0060918B0070918C0080918D00A8D3C1
:10039000089580917000882321F01092700085E00C
:1003A0007DDE80916F008631F8F410926F008091AD
:1003B00087008F5F80938700883110F0109287004C
:1003C0001092890080E06ADE2091870030918800D9
:1003D0004091890050918A0060918B0070918C004F
:1003E00080918D00B5D318C086518930A8F486E17C
:1003F00080936F0090918B009F5F90938B00E091B2
:100400008C00F0E0E15AFF4F8081891718F481E0F9
:1004100080938B0081E042DE20918700309188003C
:100420004091890050918A0060918B0070918C00FE
:1004300080918D0055D308951F93DF93CF93CDB74F
:10044000DEB727970FB6F894DEBF0FBECDBF88E0AA
:10045000C0D38A3A91F18AEA68E0ACD380E167E0E0
:10046000A9D311E010937C0081E069E0A3D310923E
:100470008700109288001092890010938B001093CF
:100480008C0082E180938D0020E030E040E05091CC
:100490008A0061E071E05CD3209187003091880090
:1004A0004091890050918A0060918B0070918C007E
:1004B00080918D0015D381E015C089E08AD38093A7
:1004C0007C008ED229833A834B835C836D837E8349
:1004D0008F83A7E8B0E0FE01319687E001900D928E
:1004E0008150E1F727960FB6F894DEBF0FBECDBF5F
:1004F000CF91DF911F9108953F924F925F926F923B
:100500007F928F929F92AF92BF92CF92DF92EF92A3
:10051000FF920F931F93DF93CF93CDB7DEB7A897CA
:100520000FB6F894DEBF0FBECDBF2CE088E190E09F
:100530000FB6F894A89581BD0FBE21BD62D1C5D379
:1005400040D483D337DEDAD1CE010196BE01645F99
:100550007F4FAE01495E5F4F47DE6EDF80937000D4
:1005600080E09CDD789483E882BF83E083BF89B715
:10057000816089BF10E058E1352E4AEF642E712C5E
:10058000552453944E010894811C911C3CE0A32EE9
:10059000B12CAC0EBD1E27E1C22ED12CCC0EDD1E1F
:1005A00092E2E92EF12CEC0EFD1E80E2482E8091A5
:1005B0007100882371F0A89510927100802F90E04F
:1005C00046D1882331F00FB6F89431BC11BC0FBE70
:1005D00013BE80917000882399F080916D009091F6
:1005E0006E00892B69F4112321F084E057DD10E0BF
:1005F00003C085E053DD11E070926E0060926D00E3
:10060000C40183D1C50181D1C6017FD1809172001F
:10061000882309F468C080916D0090916E00892B49
:1006200009F061C080917000882309F05CC01092CD
:100630007200D6D12AA33BA34CA35DA36EA37FA3D4
:1006400088A7A7E8B0E0F70187E001900D928150FC
:10065000E1F780916F00863198F4882339F4809116
:100660007C00843019F010928000C4D290E0809118
:100670008000882309F491E09093800080E010C00E
:10068000863121F45092800081E00AC0803249F422
:10069000B7D290938600809385005092800082E0CC
:1006A000FDDC90917C009430D1F080916F008F5FE1
:1006B00080936F008A3210F010926F00923039F4FC
:1006C00080916F00803259F410926F0008C093300F
:1006D00031F480916F00863111F440926F0079D32C
:1006E00072DD082F64CF809188008B3309F05FCFD3
:1006F000809189008B3309F05ACF10926F0083E00C
:10070000CDDC55CF809173008F5F80937300815053
:10071000813069F0813028F0823079F08330E1F463
:1007200013C080917D0060917E0041E00BC08091FC
:100730007F006091800042E005C08091810060915F
:10074000820043E0D1D208958091830060918400BB
:1007500044E0CAD21092730008951F920F920FB610
:100760000F9211242F933F934F935F936F937F9337
:100770008F939F93AF93BF93EF93FF9380916C0000
:100780008F5F80936C0080916C0080FDBBDF809157
:100790006C00823029F481E08093710010926C002B
:1007A00080918E0090918F00892B49F080918E006E
:1007B00090918F00019790938F0080938E0080918D
:1007C0006D0090916E00892B49F080916D009091A1
:1007D0006E00019790936E0080936D0083E882BF56
:1007E000FF91EF91BF91AF919F918F917F916F9109
:1007F0005F914F913F912F910F900FBE0F901F90DF
:100800001895BB9AC39A85B5896785BD88E283BD73
:10081000A19887B1806687B986B1856886B9089541
:1008200013BCC39A089587B1807F816087B9369AD7
:100830003699FECF85B190E0880F991F880F991FD8
:1008400063E070E0F9D2675F7F4FCB0108950F93AB
:100850001F938C01E8DF081B190BB801882777FD6F
:100860008095982F2CE330E040E050E0BAD2209100
:100870007600309177004091780050917900620FB6
:10088000731F841F951F6093760070937700809389
:1008900078009093790028EE33E040E050E0F3D206
:1008A000C80143E0880F991F4A95E1F7801B910B1F
:1008B000820F931F8F3F910554F0809175008F5FD9
:1008C00080937500843678F48EEF90E012C097FF25
:1008D0000EC0809175008F5F80937500843618F488
:1008E00080E090E006C013BCC39A81E004C010927F
:1008F000750083BD80E01F910F91089587B3887FB5
:1009000087BB88B3876088BB0895CF93DF93EC01E2
:1009100090917B00992321F08A81981709F04EC0AD
:10092000E881F98180819A81892320917A00882346
:10093000F1F5222351F481E080937A0082E390E084
:1009400090938F0080938E0039C080918E0090919B
:100950008F00892B99F52130A1F4EF81F88530972C
:1009600009F0099582E080937A008D819E819695A9
:10097000879590938F0080938E008A8180937B006F
:100980001DC0223021F483E080937A0017C0233009
:10099000A9F48B819C819695879590938F00809385
:1009A0008E00E985FA85309749F0099507C02250F5
:1009B000223020F410927A0010927B00DF91CF91C8
:1009C0000895482F6AE02CD2282F30E084E0220FCF
:1009D000331F8A95E1F7842F23D2892F820F089540
:1009E000BF92CF92DF92EF92FF920F931F93DF930C
:1009F000CF93CDB7DEB727970FB6F894DEBF0FBE03
:100A0000CDBF29D180ED41D180E03FD124D181ED0E
:100A10003CD181E048D1C82E81E045D1D82E81E07B
:100A200042D1F82E81E03FD1E82E81E03CD1082F61
:100A300081E039D1182F80E036D1B82E19D1EB2DB5
:100A4000E295EF702AE0E29FF00111243FE0B3222B
:100A5000812F82958F70829FC00111241F70180F03
:100A6000802F82958F70829FC00111240F70080F14
:100A70008E2D82958F70829FC0011124E322E80E93
:100A80008F2D82958F70829FC0011124F322F80E62
:100A90008D2D82958F70829FC0011124D322D80E94
:100AA0008C2D82958F70829FC0011124C322C80EA5
:100AB0002F2D3D2D4C2D5E2DB8018B2D8E0F90E0EE
:100AC00027960FB6F894DEBF0FBECDBFCF91DF9152
:100AD0001F910F91FF90EF90DF90CF90BF900895FE
:100AE000EF92FF920F931F93DF93CF93CDB7DEB7B3
:100AF00027970FB6F894DEBF0FBECDBF29833A8388
:100B00004B83152F5C83062F6D83F72E7E838F8397
:100B1000E82EA1D080EDB9D083E0B7D0812F51DF8E
:100B2000B4D0802F4EDFB1D08F2D4BDFAED08E2DC5
:100B300048DFABD09DD027960FB6F894DEBF0FBE2E
:100B4000CDBFCF91DF911F910F91FF90EF9008954E
:100B5000FF920F931F93DF93CF93CDB7DEB7279705
:100B60000FB6F894DEBF0FBECDBFF22E2983032F40
:100B70003A83142F4B835C836D837E838F836BD08A
:100B800080ED83D080E081D0812F1BDF7ED0802F4D
:100B900018DF7BD08F2D15DF78D06AD027960FB65F
:100BA000F894DEBF0FBECDBFCF91DF911F910F91A3
:100BB000FF9008950F931F93082F162F4CD080EDB0
:100BC00064D0812F62D0802F60D052D01F910F91BE
:100BD00008951F93182F3FD080ED57D0812F55D007
:100BE0003AD081ED52D080E05ED0182F41D0812FD5
:100BF0001F9108959DD08CECAED084E4ACD00895C4
:100C00001F9396D08CECA7D08EEBA5D0C1D0182F17
:100C1000BFD0482F812F90E08F70907021E732E095
:100C2000BC01629FC001639F900D729F900D1124C3
:100C300064E670E015D1962F4295407F12951F70A3
:100C4000412B842F8F771F9108958CE080B981B15B
:100C50008C7F81B9089584EA86BF8AEF80939000E3
:100C600006B607FC02C08150D8F780939000089523
:100C700084E986BF8AEF8093900006B604FC02C028
:100C80008150D8F780939000089583B984E886BF97
:100C90008AEF8093900006B607FC02C08150D8F717
:100CA0008093900008958295880F880F807C8468D7
:100CB00086BF8AEF8093900006B607FC02C0815081
:100CC000D8F78093900083B1089588B38F7088BB64
:100CD00082B38F7082BB939887B3806F87BB81B3D9
:100CE000806F81BB8B9A0895982F88B38F7088BBD3
:100CF0009A30E8F482B39295907F8770892B660FC3
:100D0000660F660F862B82BB423061F0433018F4C9
:100D1000413069F405C0433039F0443041F406C035
:100D2000C49A0895C59A0895C69A0895C79A0895D1
:100D3000F8949198899A80EE91E00197F1F789985B
:100D40008DE58A95F1F780B3EAE9F1E03197F1F7A3
:100D5000789482700895F89420E060E55DE048E0C2
:100D600035E5899A80FF06C0942F9A95F1F7899806
:100D7000932F05C0962F9A95F1F78998952F9A95FC
:100D8000F1F72F5F283011F08695EBCF7894089516
:100D9000F89420E080E058E04CE039E48695899AA8
:100DA000952F9A95F1F78998942F9A95F1F7819953
:100DB0008068932F9A95F1F72F5F283079F7789410
:100DC0000895A09887B1806687B986B1856886B98D
:100DD000089587B1807F87B9369A3699FECF85B15D
:100DE0000895629FD001739FF001829FE00DF11D75
:100DF000649FE00DF11D929FF00D839FF00D749F95
:100E0000F00D659FF00D9927729FB00DE11DF91F40
:100E1000639FB00DE11DF91FBD01CF01112408959D
:100E2000991B79E004C0991F961708F0961B881F3C
:100E30007A95C9F780950895AA1BBB1B51E107C09D
:100E4000AA1FBB1FA617B70710F0A61BB70B881F5A
:100E5000991F5A95A9F780959095BC01CD010895E9
:100E600097FB092E07260AD077FD04D0E5DF06D0D0
:100E700000201AF4709561957F4F0895F6F79095CC
:100E800081959F4F089597FB092E05260ED057FD9B
:100E900004D014D00AD0001C38F4509540953095F9
:100EA00021953F4F4F4F5F4F0895F6F790958095EE
:100EB000709561957F4F8F4F9F4F0895A1E21A2E35
:100EC000AA1BBB1BFD010DC0AA1FBB1FEE1FFF1FEE
:100ED000A217B307E407F50720F0A21BB30BE40B3E
:100EE000F50B661F771F881F991F1A9469F7609585
:100EF0007095809590959B01AC01BD01CF0108953F
:040F0000F894FFCF93
:0C0F04001F1C1F1E1F1E1F1F1E1F1E1F74
:00000001FF
